:100000006F00C05C0000000000020000020200005F
:1000100000000000000000000000000000000000E0
:1000200000000000000000000000000000000000D0
:10003000CA05000000000000CA0500000000000022
:10004000CA050000CA050000CA050000CA05000074
:10005000CA050000CA050000CA050000CA05000064
:10006000CA050000CA050000CA050000CA05000054
:10007000CA050000CA050000CA050000CA05000044
:10008000B4050000CA050000CA050000E203000034
:10009000CA050000CA050000CA05000000000000F3
:1000A000511126C022C206C4828282441244A24058
:1000B000310182802A86014593F6150091C232955E
:1000C00085810606F5F9828000000000634E050276
:1000D00063C305042E86AA857D5515C285466378BF
:1000E000B6006356C00006068606E36CB6FE014500
:1000F00063E4C500918D558D85820582F5FA828075
:100100008682C93F2E8582823305A04063D70500D1
:10011000B305B040C1B7B305B0408682653F330533
:10012000A0408282868263C70500634905005D376F
:100130002E858282B305B040E35B05FE3305A04007
:10014000513F3305B04082820000EFF27FF541114C
:100150008545114502C202C402C67925854541453F
:100160006125854513050002412581452165792BCF
:100170003715014009449147C1444C0013050580DF
:100180007C823EC026C622C4D5294C0037150140CA
:10019000608226C622C4DD2182474C00371501400B
:1001A0007C8226C622C4D929930780044C003715C7
:1001B000014064823EC622C4D1214101FDB5EFF267
:1001C0003FEE0589054611E1014689453715014095
:1001D0000D2BE1BDEFF2DFEC0589054611E101468B
:1001E000914537150140312BC9B5EFF27FEBC14581
:1001F00037150140112355BDEFF29FEAB93775B5A8
:1002000001A0B707EFBE37E700E0938707083CC7B8
:1002100001A0EFF2FFE8511105455D2B312E2D2D88
:10022000E13FB706002037040020F957238DF60080
:1002300037070020930794017D56B704002001453D
:100240002300C70023800700238C04008D3F930701
:10025000940188231304940193848401A53FB70675
:1002600000201387A6013AC03707002013070700B4
:1002700081473AC23EC4953F92479823A2476307FD
:10028000A70012472380040008A3EDB765F7882074
:100290001D47636EA70005051375F50F88A0053788
:1002A00085471305800C3EC4D523A247E1B7F5DB93
:1002B000082002471345F5FF18231375F50F08A012
:1002C000E301A7FE824788A3DD3D0820213781474F
:1002D000C9BF7A215E216387E7021C41BA979C233C
:1002E0009CA17E211A258507C207C1837EA163E4F4
:1002F000E700231305007E214A213385A7403335CB
:10030000A00082807D558280EFF29FD90E257E214C
:100310004A21B387F5403E95E5334205418171B3EB
:10032000EFF21FD82E860E2D4849E12EBDBB1C21B1
:10033000BDCBEFF2FFD65C2171112A848DE3854796
:100340003CA18145F13F5C209305310013058400F9
:1003500085075CA0BD3F9C811CB01101B9B321474A
:10036000636CF7000C318589653F1C3085831CB0B8
:100370005C2085075CA0D5B725476395E7008545D8
:100380004537FDB72947E39AE7FC2302050021051D
:10039000A53F09C585473CA01CA0C1B723010400A7
:1003A000230004005DBF8280EFF29FCF370400205E
:1003B0009307B4019C231304B40193F7F70F91E75B
:1003C000370500201305C5019D371C2011478507FF
:1003D00093F7F70F1CA01C206374F70023000400A0
:1003E000E9B1711122C0373401408545130504C0BD
:1003F000192911C58545130504C01929753702440B
:10040000110173002030EFF2BFC9371402401C40C5
:100410003707FFF8611193E717001CC05C404145A6
:10042000F98F5CC01C403707F7FE7D17F98F1CC0A1
:100430001C403707FCFF7D17F98F1CC05C404177DB
:100440007D17F98F5CC0B7079F001CC469261C4C40
:100450003706020093E707021CCCB717014003A739
:100460000740938607401377F7F023A0E74003A7E0
:1004700007401367070823A0E74089479CCA02C0CA
:1004800002C21C4C37070140A16693E717001CCC41
:100490005C43D58F5CC31C404167B7160240D98FBF
:1004A0001CC009679C42F18F3EC2824785073EC04F
:1004B000924781E78247E397E7FEB71702409C43E4
:1004C0001397E7006358070685473EC212478547E2
:1004D0006310F706B72702409843C176FD16719B5B
:1004E00098C398431367170098C3B7170240D843BF
:1004F000D8C3D843758FD8C3D843C166558FD8C3E6
:100500009843B7060001558F98C398439316670028
:10051000E3DD06FED843B7160240719BD8C3D8432B
:1005200013672700D8C32147DC42B18BE39EE7FE67
:100530002101A5BE02C259BFEFF29FB63717024094
:100540005C43370400209146B18B1304440163855A
:10055000D700A1466380D704B7376E019387076041
:100560001CC0B7160240DC420840918313F7F70025
:10057000B707002093874700BA978C23DC4293F596
:10058000F50F93F707083357B50099E3A1362A878B
:1005900018C021BE5C43B777DC02938707C0C9B798
:1005A000B747014093870780DE2393F7F70F238037
:1005B000F182828037450140930550521305058032
:1005C000B12C11C1F13F7300203001A09701002030
:1005D0009381C124138181FE1305000A9705002031
:1005E000938545A2170600201306C6A163FAC5002D
:1005F0008322050023A0550011059105E3EAC5FEFD
:10060000170500001305852C970500209385859F0D
:1006100017060020130686A063FAC5008322050092
:1006200023A0550011059105E3EAC5FE170500203A
:100630001305C59E9385C1826377B500232005000D
:100640001105E36DB5FEB722000093820288739016
:1006500002308D4273904280970200009382829A0A
:1006600093E2320073905230EFF0FFD9970200000E
:10067000938262BA7390123473002030944593F7DA
:10068000060193F2F60081C7DC41B3E2F20083D3A6
:10069000050093F7F30FA5C303230500611122C2E0
:1006A00026C0814713048002930480040547331653
:1006B000F70033F7C3006312E602939527003D4726
:1006C0003317B7001347F7FF33736700B395B200D2
:1006D00033E36500639D860050C985072147E39792
:1006E000E7FC124423206500824421018280E396C6
:1006F00096FE10C9DDB7828008456D8D3335A000A8
:10070000828019C20CC982804CC9828037030140A3
:10071000032743009317350063D00702B707C0FFD4
:10072000F517F98F37070007D98FD9CD370700F0B4
:100730007D17798DC98F49A8635D0500B707E0FF74
:10074000ED17F98F37070007D98FBDCD0605058155
:10075000D5B7B7073000931605013376F500C1828F
:100760006313F602370600F97D16B377C700032737
:100770004300798E2322C300A1C955811317450078
:100780003395E60045BF9317B50063D4070293572E
:10079000050113F6F7008D47B397C70093C7F7FF1E
:1007A000F98F37070007D98F85C1135755011207F5
:1007B000C1BF558112053395A6009347F5FFF98F08
:1007C00037070007D98FBDF5370701405CC382802A
:1007D00023A2A1828280371702401C430E0593F7A3
:1007E00077F05D8D08C3828099C5371702401C4F92
:1007F0005D8D08CF8280B7170240984F1345F5FFF3
:10080000798D88CF82800A296D8D3335A000828052
:1008100093C5F5FFC205C1810EA9828013F7F50FBC
:1008200085461583B397B6006311D7025A25F98F11
:100830001A2101454207418381CB0545A181B315AA
:10084000B5006D8F3335E000828089466314D70090
:100850001A29F1BF5A29E1BFEFF29F84B7070020A0
:1008600003A54701B7157A0093850520EFF09F8611
:100870001375F50F2385A18293175500898F8A0779
:100880003E950E052394A1826FF03F82EFF25F81C7
:1008900037F400E05C40AA85F99B5CC003D58182F7
:1008A000EFF05F8108C8232404001C4093E7170081
:1008B0001CC0B7F700E0D843058B75DF9843799BE0
:0808C00098C36FF08FFE0000E9
:1008C800FF000000010203040506070801020304F3
:0808D80005060708006CDC02B4
:00000001FF
